{
  "_format": "hh-sol-artifact-1",
  "contractName": "Words",
  "sourceName": "contracts/Words.sol",
  "abi": [
    {
      "inputs": [],
      "name": "getWord",
      "outputs": [
        {
          "internalType": "string[]",
          "name": "",
          "type": "string[]"
        }
      ],
      "stateMutability": "view",
      "type": "function"
    },
    {
      "inputs": [
        {
          "internalType": "string",
          "name": "_word",
          "type": "string"
        }
      ],
      "name": "setWord",
      "outputs": [],
      "stateMutability": "nonpayable",
      "type": "function"
    }
  ],
  "bytecode": "0x608060405234801561001057600080fd5b506103ec806100206000396000f3fe608060405234801561001057600080fd5b50600436106100365760003560e01c8063cd048de61461003b578063ed40a8c814610050575b600080fd5b61004e610049366004610224565b61006e565b005b6100586100b2565b60405161006591906102ce565b60405180910390f35b6000805460018101825590805281516100ae917f290decd9548b62a8d60345a988386fc84ba6bc95484008f6362f93160ef3e5630190602084019061018b565b5050565b60606000805480602002602001604051908101604052809291908181526020016000905b828210156101825783829060005260206000200180546100f590610365565b80601f016020809104026020016040519081016040528092919081815260200182805461012190610365565b801561016e5780601f106101435761010080835404028352916020019161016e565b820191906000526020600020905b81548152906001019060200180831161015157829003601f168201915b5050505050815260200190600101906100d6565b50505050905090565b82805461019790610365565b90600052602060002090601f0160209004810192826101b957600085556101ff565b82601f106101d257805160ff19168380011785556101ff565b828001600101855582156101ff579182015b828111156101ff5782518255916020019190600101906101e4565b5061020b92915061020f565b5090565b5b8082111561020b5760008155600101610210565b600060208284031215610235578081fd5b813567ffffffffffffffff8082111561024c578283fd5b818401915084601f83011261025f578283fd5b813581811115610271576102716103a0565b604051601f8201601f19908116603f01168101908382118183101715610299576102996103a0565b816040528281528760208487010111156102b1578586fd5b826020860160208301379182016020019490945295945050505050565b6000602080830181845280855180835260408601915060408482028701019250838701855b8281101561035857878503603f1901845281518051808752885b81811015610328578281018901518882018a0152880161030d565b81811115610338578989838a0101525b50601f01601f1916959095018601945092850192908501906001016102f3565b5092979650505050505050565b60028104600182168061037957607f821691505b6020821081141561039a57634e487b7160e01b600052602260045260246000fd5b50919050565b634e487b7160e01b600052604160045260246000fdfea264697066735822122066dc8345ed79071cee739c7c917038322a7d121cdec423746cd044b8f83d45b364736f6c63430008010033",
  "linkReferences": {},
  "deployedLinkReferences": {}
}