{
  "_format": "hh-sol-artifact-1",
  "contractName": "Words",
  "sourceName": "contracts/Words.sol",
  "abi": [
    {
      "inputs": [],
      "stateMutability": "nonpayable",
      "type": "constructor"
    },
    {
      "anonymous": false,
      "inputs": [
        {
          "indexed": false,
          "internalType": "address",
          "name": "usuario",
          "type": "address"
        },
        {
          "indexed": false,
          "internalType": "string",
          "name": "word",
          "type": "string"
        }
      ],
      "name": "newWord",
      "type": "event"
    },
    {
      "inputs": [],
      "name": "getWord",
      "outputs": [
        {
          "internalType": "string",
          "name": "",
          "type": "string"
        }
      ],
      "stateMutability": "view",
      "type": "function"
    },
    {
      "inputs": [
        {
          "internalType": "string",
          "name": "_word",
          "type": "string"
        }
      ],
      "name": "isUsed",
      "outputs": [
        {
          "internalType": "bool",
          "name": "",
          "type": "bool"
        }
      ],
      "stateMutability": "view",
      "type": "function"
    },
    {
      "inputs": [],
      "name": "owner",
      "outputs": [
        {
          "internalType": "address",
          "name": "",
          "type": "address"
        }
      ],
      "stateMutability": "view",
      "type": "function"
    },
    {
      "inputs": [],
      "name": "readWord",
      "outputs": [
        {
          "internalType": "string[]",
          "name": "",
          "type": "string[]"
        }
      ],
      "stateMutability": "view",
      "type": "function"
    },
    {
      "inputs": [
        {
          "internalType": "string",
          "name": "_word",
          "type": "string"
        }
      ],
      "name": "setWord",
      "outputs": [],
      "stateMutability": "nonpayable",
      "type": "function"
    },
    {
      "inputs": [
        {
          "internalType": "string",
          "name": "_word",
          "type": "string"
        }
      ],
      "name": "useWord",
      "outputs": [],
      "stateMutability": "nonpayable",
      "type": "function"
    },
    {
      "inputs": [
        {
          "internalType": "string",
          "name": "",
          "type": "string"
        }
      ],
      "name": "words",
      "outputs": [
        {
          "internalType": "string",
          "name": "text",
          "type": "string"
        },
        {
          "internalType": "bool",
          "name": "used",
          "type": "bool"
        }
      ],
      "stateMutability": "view",
      "type": "function"
    }
  ],
  "bytecode": "0x608060405234801561001057600080fd5b50600180546001600160a01b03191633179055610892806100326000396000f3fe608060405234801561001057600080fd5b506004361061007d5760003560e01c80638da5cb5b1161005b5780638da5cb5b146100d55780639b7bfee5146100ea578063cd048de61461010b578063ed40a8c81461011e5761007d565b806305cd82f414610082578063578d714b146100a05780637f453628146100c0575b600080fd5b61008a610133565b6040516100979190610712565b60405180910390f35b6100b36100ae3660046105e0565b61020c565b6040516100979190610772565b6100d36100ce3660046105e0565b61023b565b005b6100dd6102be565b60405161009791906106d2565b6100fd6100f83660046105e0565b6102cd565b604051610097929190610797565b6100d36101193660046105e0565b61037f565b610126610479565b604051610097919061077d565b60606000805480602002602001604051908101604052809291908181526020016000905b82821015610203578382906000526020600020018054610176906107eb565b80601f01602080910402602001604051908101604052809291908181526020018280546101a2906107eb565b80156101ef5780601f106101c4576101008083540402835291602001916101ef565b820191906000526020600020905b8154815290600101906020018083116101d257829003601f168201915b505050505081526020019060010190610157565b50505050905090565b600060028260405161021e91906106b6565b9081526040519081900360200190206001015460ff169050919050565b6001546001600160a01b0316331461025257600080fd5b6040805180820182528281526001602082015290516002906102759084906106b6565b9081526020016040518091039020600082015181600001908051906020019061029f929190610547565b50602091909101516001909101805460ff191691151591909117905550565b6001546001600160a01b031681565b80516020818301810180516002825292820191909301209152805481906102f3906107eb565b80601f016020809104026020016040519081016040528092919081815260200182805461031f906107eb565b801561036c5780601f106103415761010080835404028352916020019161036c565b820191906000526020600020905b81548152906001019060200180831161034f57829003601f168201915b5050506001909301549192505060ff1682565b6001546001600160a01b0316331461039657600080fd5b6040805180820182528281526000602082015290516002906103b99084906106b6565b908152602001604051809103902060008201518160000190805190602001906103e3929190610547565b506020918201516001918201805460ff19169115159190911790556000805491820181558052825161043c927f290decd9548b62a8d60345a988386fc84ba6bc95484008f6362f93160ef3e56390920191840190610547565b507fc37e000d2c96dad92bebce0c293504474b70916b1edfb3a6f854d4578a280748338260405161046e9291906106e6565b60405180910390a150565b600080546060919061048b9042610826565b9050600081815481106104ae57634e487b7160e01b600052603260045260246000fd5b9060005260206000200180546104c3906107eb565b80601f01602080910402602001604051908101604052809291908181526020018280546104ef906107eb565b801561053c5780601f106105115761010080835404028352916020019161053c565b820191906000526020600020905b81548152906001019060200180831161051f57829003601f168201915b505050505091505090565b828054610553906107eb565b90600052602060002090601f01602090048101928261057557600085556105bb565b82601f1061058e57805160ff19168380011785556105bb565b828001600101855582156105bb579182015b828111156105bb5782518255916020019190600101906105a0565b506105c79291506105cb565b5090565b5b808211156105c757600081556001016105cc565b6000602082840312156105f1578081fd5b813567ffffffffffffffff80821115610608578283fd5b818401915084601f83011261061b578283fd5b81358181111561062d5761062d610846565b604051601f8201601f19908116603f0116810190838211818310171561065557610655610846565b8160405282815287602084870101111561066d578586fd5b826020860160208301379182016020019490945295945050505050565b600081518084526106a28160208601602086016107bb565b601f01601f19169290920160200192915050565b600082516106c88184602087016107bb565b9190910192915050565b6001600160a01b0391909116815260200190565b6001600160a01b038316815260406020820181905260009061070a9083018461068a565b949350505050565b6000602080830181845280855180835260408601915060408482028701019250838701855b8281101561076557603f1988860301845261075385835161068a565b94509285019290850190600101610737565b5092979650505050505050565b901515815260200190565b600060208252610790602083018461068a565b9392505050565b6000604082526107aa604083018561068a565b905082151560208301529392505050565b60005b838110156107d65781810151838201526020016107be565b838111156107e5576000848401525b50505050565b6002810460018216806107ff57607f821691505b6020821081141561082057634e487b7160e01b600052602260045260246000fd5b50919050565b60008261084157634e487b7160e01b81526012600452602481fd5b500690565b634e487b7160e01b600052604160045260246000fdfea26469706673582212204e1f72aed303367a091444e0497e6d09802e7e83314a8dc155fb18bd8e4e156164736f6c63430008010033",
  "linkReferences": {},
  "deployedLinkReferences": {}
}